:100000000C9434000C943E000C943E000C943E0082
:100010000C943E000C943E000C943E000C943E0068
:100020000C943E000C943E000C943E000C943E0058
:100030000C943E000C943E000C943E000C943E0048
:100040000C943E000C943E000C943E000C943E0038
:100050000C943E000C943E000C943E000C943E0028
:100060000C943E000C943E0011241FBECFEFD8E04C
:10007000DEBFCDBF0E9440000C945B000C940000DA
:1000800080E284B985B92FEF3CE241E391E0215051
:10009000304040409040D9F700C0000015B82FEF25
:1000A0003CE241E391E02150304040409040D9F79C
:0A00B00000C00000E7CFF894FFCF76
:00000001FF
